{
  "_format": "hh-sol-artifact-1",
  "contractName": "NFT",
  "sourceName": "contracts/NFT.sol",
  "abi": [
    {
      "inputs": [],
      "stateMutability": "nonpayable",
      "type": "constructor"
    },
    {
      "anonymous": false,
      "inputs": [
        {
          "indexed": true,
          "internalType": "address",
          "name": "owner",
          "type": "address"
        },
        {
          "indexed": true,
          "internalType": "address",
          "name": "approved",
          "type": "address"
        },
        {
          "indexed": true,
          "internalType": "uint256",
          "name": "tokenId",
          "type": "uint256"
        }
      ],
      "name": "Approval",
      "type": "event"
    },
    {
      "anonymous": false,
      "inputs": [
        {
          "indexed": true,
          "internalType": "address",
          "name": "owner",
          "type": "address"
        },
        {
          "indexed": true,
          "internalType": "address",
          "name": "operator",
          "type": "address"
        },
        {
          "indexed": false,
          "internalType": "bool",
          "name": "approved",
          "type": "bool"
        }
      ],
      "name": "ApprovalForAll",
      "type": "event"
    },
    {
      "anonymous": false,
      "inputs": [
        {
          "indexed": true,
          "internalType": "address",
          "name": "previousOwner",
          "type": "address"
        },
        {
          "indexed": true,
          "internalType": "address",
          "name": "newOwner",
          "type": "address"
        }
      ],
      "name": "OwnershipTransferred",
      "type": "event"
    },
    {
      "anonymous": false,
      "inputs": [
        {
          "indexed": true,
          "internalType": "address",
          "name": "from",
          "type": "address"
        },
        {
          "indexed": true,
          "internalType": "address",
          "name": "to",
          "type": "address"
        },
        {
          "indexed": true,
          "internalType": "uint256",
          "name": "tokenId",
          "type": "uint256"
        }
      ],
      "name": "Transfer",
      "type": "event"
    },
    {
      "inputs": [],
      "name": "MINT_PRICE",
      "outputs": [
        {
          "internalType": "uint256",
          "name": "",
          "type": "uint256"
        }
      ],
      "stateMutability": "view",
      "type": "function"
    },
    {
      "inputs": [],
      "name": "TOTAL_SUPPLY",
      "outputs": [
        {
          "internalType": "uint256",
          "name": "",
          "type": "uint256"
        }
      ],
      "stateMutability": "view",
      "type": "function"
    },
    {
      "inputs": [
        {
          "internalType": "address",
          "name": "to",
          "type": "address"
        },
        {
          "internalType": "uint256",
          "name": "tokenId",
          "type": "uint256"
        }
      ],
      "name": "approve",
      "outputs": [],
      "stateMutability": "nonpayable",
      "type": "function"
    },
    {
      "inputs": [
        {
          "internalType": "address",
          "name": "owner",
          "type": "address"
        }
      ],
      "name": "balanceOf",
      "outputs": [
        {
          "internalType": "uint256",
          "name": "",
          "type": "uint256"
        }
      ],
      "stateMutability": "view",
      "type": "function"
    },
    {
      "inputs": [],
      "name": "baseTokenURI",
      "outputs": [
        {
          "internalType": "string",
          "name": "",
          "type": "string"
        }
      ],
      "stateMutability": "view",
      "type": "function"
    },
    {
      "inputs": [
        {
          "internalType": "uint256",
          "name": "tokenId",
          "type": "uint256"
        }
      ],
      "name": "getApproved",
      "outputs": [
        {
          "internalType": "address",
          "name": "",
          "type": "address"
        }
      ],
      "stateMutability": "view",
      "type": "function"
    },
    {
      "inputs": [
        {
          "internalType": "address",
          "name": "owner",
          "type": "address"
        },
        {
          "internalType": "address",
          "name": "operator",
          "type": "address"
        }
      ],
      "name": "isApprovedForAll",
      "outputs": [
        {
          "internalType": "bool",
          "name": "",
          "type": "bool"
        }
      ],
      "stateMutability": "view",
      "type": "function"
    },
    {
      "inputs": [
        {
          "internalType": "address",
          "name": "recipient",
          "type": "address"
        }
      ],
      "name": "mintTo",
      "outputs": [
        {
          "internalType": "uint256",
          "name": "",
          "type": "uint256"
        }
      ],
      "stateMutability": "payable",
      "type": "function"
    },
    {
      "inputs": [],
      "name": "name",
      "outputs": [
        {
          "internalType": "string",
          "name": "",
          "type": "string"
        }
      ],
      "stateMutability": "view",
      "type": "function"
    },
    {
      "inputs": [],
      "name": "owner",
      "outputs": [
        {
          "internalType": "address",
          "name": "",
          "type": "address"
        }
      ],
      "stateMutability": "view",
      "type": "function"
    },
    {
      "inputs": [
        {
          "internalType": "uint256",
          "name": "tokenId",
          "type": "uint256"
        }
      ],
      "name": "ownerOf",
      "outputs": [
        {
          "internalType": "address",
          "name": "",
          "type": "address"
        }
      ],
      "stateMutability": "view",
      "type": "function"
    },
    {
      "inputs": [
        {
          "internalType": "address",
          "name": "dest",
          "type": "address"
        }
      ],
      "name": "payments",
      "outputs": [
        {
          "internalType": "uint256",
          "name": "",
          "type": "uint256"
        }
      ],
      "stateMutability": "view",
      "type": "function"
    },
    {
      "inputs": [],
      "name": "renounceOwnership",
      "outputs": [],
      "stateMutability": "nonpayable",
      "type": "function"
    },
    {
      "inputs": [
        {
          "internalType": "address",
          "name": "from",
          "type": "address"
        },
        {
          "internalType": "address",
          "name": "to",
          "type": "address"
        },
        {
          "internalType": "uint256",
          "name": "tokenId",
          "type": "uint256"
        }
      ],
      "name": "safeTransferFrom",
      "outputs": [],
      "stateMutability": "nonpayable",
      "type": "function"
    },
    {
      "inputs": [
        {
          "internalType": "address",
          "name": "from",
          "type": "address"
        },
        {
          "internalType": "address",
          "name": "to",
          "type": "address"
        },
        {
          "internalType": "uint256",
          "name": "tokenId",
          "type": "uint256"
        },
        {
          "internalType": "bytes",
          "name": "data",
          "type": "bytes"
        }
      ],
      "name": "safeTransferFrom",
      "outputs": [],
      "stateMutability": "nonpayable",
      "type": "function"
    },
    {
      "inputs": [
        {
          "internalType": "address",
          "name": "operator",
          "type": "address"
        },
        {
          "internalType": "bool",
          "name": "approved",
          "type": "bool"
        }
      ],
      "name": "setApprovalForAll",
      "outputs": [],
      "stateMutability": "nonpayable",
      "type": "function"
    },
    {
      "inputs": [
        {
          "internalType": "string",
          "name": "_baseTokenURI",
          "type": "string"
        }
      ],
      "name": "setBaseTokenURI",
      "outputs": [],
      "stateMutability": "nonpayable",
      "type": "function"
    },
    {
      "inputs": [
        {
          "internalType": "bytes4",
          "name": "interfaceId",
          "type": "bytes4"
        }
      ],
      "name": "supportsInterface",
      "outputs": [
        {
          "internalType": "bool",
          "name": "",
          "type": "bool"
        }
      ],
      "stateMutability": "view",
      "type": "function"
    },
    {
      "inputs": [],
      "name": "symbol",
      "outputs": [
        {
          "internalType": "string",
          "name": "",
          "type": "string"
        }
      ],
      "stateMutability": "view",
      "type": "function"
    },
    {
      "inputs": [
        {
          "internalType": "uint256",
          "name": "tokenId",
          "type": "uint256"
        }
      ],
      "name": "tokenURI",
      "outputs": [
        {
          "internalType": "string",
          "name": "",
          "type": "string"
        }
      ],
      "stateMutability": "view",
      "type": "function"
    },
    {
      "inputs": [
        {
          "internalType": "address",
          "name": "from",
          "type": "address"
        },
        {
          "internalType": "address",
          "name": "to",
          "type": "address"
        },
        {
          "internalType": "uint256",
          "name": "tokenId",
          "type": "uint256"
        }
      ],
      "name": "transferFrom",
      "outputs": [],
      "stateMutability": "nonpayable",
      "type": "function"
    },
    {
      "inputs": [
        {
          "internalType": "address",
          "name": "newOwner",
          "type": "address"
        }
      ],
      "name": "transferOwnership",
      "outputs": [],
      "stateMutability": "nonpayable",
      "type": "function"
    },
    {
      "inputs": [
        {
          "internalType": "address payable",
          "name": "payee",
          "type": "address"
        }
      ],
      "name": "withdrawPayments",
      "outputs": [],
      "stateMutability": "nonpayable",
      "type": "function"
    }
  ],
  "bytecode": "0x60a06040523480156200001157600080fd5b506040518060400160405280600b81526020017f4e46545475746f7269616c0000000000000000000000000000000000000000008152506040518060400160405280600381526020017f4e4654000000000000000000000000000000000000000000000000000000000081525081600090816200008f9190620004a0565b508060019081620000a19190620004a0565b505050604051620000b29062000218565b604051809103906000f080158015620000cf573d6000803e3d6000fd5b5073ffffffffffffffffffffffffffffffffffffffff1660808173ffffffffffffffffffffffffffffffffffffffff168152505062000123620001176200014a60201b60201c565b6200015260201b60201c565b6040518060200160405280600081525060089081620001439190620004a0565b5062000587565b600033905090565b6000600660009054906101000a900473ffffffffffffffffffffffffffffffffffffffff16905081600660006101000a81548173ffffffffffffffffffffffffffffffffffffffff021916908373ffffffffffffffffffffffffffffffffffffffff1602179055508173ffffffffffffffffffffffffffffffffffffffff168173ffffffffffffffffffffffffffffffffffffffff167f8be0079c531659141344cd1fd0a4f28419497f9722a3daafe3b4186f6b6457e060405160405180910390a35050565b610ba180620038a383390190565b600081519050919050565b7f4e487b7100000000000000000000000000000000000000000000000000000000600052604160045260246000fd5b7f4e487b7100000000000000000000000000000000000000000000000000000000600052602260045260246000fd5b60006002820490506001821680620002a857607f821691505b602082108103620002be57620002bd62000260565b5b50919050565b60008190508160005260206000209050919050565b60006020601f8301049050919050565b600082821b905092915050565b600060088302620003287fffffffffffffffffffffffffffffffffffffffffffffffffffffffffffffffff82620002e9565b620003348683620002e9565b95508019841693508086168417925050509392505050565b6000819050919050565b6000819050919050565b6000620003816200037b62000375846200034c565b62000356565b6200034c565b9050919050565b6000819050919050565b6200039d8362000360565b620003b5620003ac8262000388565b848454620002f6565b825550505050565b600090565b620003cc620003bd565b620003d981848462000392565b505050565b5b818110156200040157620003f5600082620003c2565b600181019050620003df565b5050565b601f82111562000450576200041a81620002c4565b6200042584620002d9565b8101602085101562000435578190505b6200044d6200044485620002d9565b830182620003de565b50505b505050565b600082821c905092915050565b6000620004756000198460080262000455565b1980831691505092915050565b600062000490838362000462565b9150826002028217905092915050565b620004ab8262000226565b67ffffffffffffffff811115620004c757620004c662000231565b5b620004d382546200028f565b620004e082828562000405565b600060209050601f83116001811462000518576000841562000503578287015190505b6200050f858262000482565b8655506200057f565b601f1984166200052886620002c4565b60005b8281101562000552578489015182556001820191506020850194506020810190506200052b565b868310156200057257848901516200056e601f89168262000462565b8355505b6001600288020188555050505b505050505050565b6080516132f9620005aa60003960008181610d59015261149301526132f96000f3fe6080604052600436106101405760003560e01c8063755edd17116100b6578063c002d23d1161006f578063c002d23d1461044b578063c87b56dd14610476578063d547cfb7146104b3578063e2982c21146104de578063e985e9c51461051b578063f2fde38b1461055857610140565b8063755edd17146103485780638da5cb5b14610378578063902d55a5146103a357806395d89b41146103ce578063a22cb465146103f9578063b88d4fde1461042257610140565b806330176e131161010857806330176e131461023c57806331b3eb941461026557806342842e0e1461028e5780636352211e146102b757806370a08231146102f4578063715018a61461033157610140565b806301ffc9a71461014557806306fdde0314610182578063081812fc146101ad578063095ea7b3146101ea57806323b872dd14610213575b600080fd5b34801561015157600080fd5b5061016c60048036038101906101679190611fba565b610581565b6040516101799190612002565b60405180910390f35b34801561018e57600080fd5b50610197610663565b6040516101a491906120ad565b60405180910390f35b3480156101b957600080fd5b506101d460048036038101906101cf9190612105565b6106f5565b6040516101e19190612173565b60405180910390f35b3480156101f657600080fd5b50610211600480360381019061020c91906121ba565b61073b565b005b34801561021f57600080fd5b5061023a600480360381019061023591906121fa565b610852565b005b34801561024857600080fd5b50610263600480360381019061025e9190612382565b6108b2565b005b34801561027157600080fd5b5061028c60048036038101906102879190612409565b6108cd565b005b34801561029a57600080fd5b506102b560048036038101906102b091906121fa565b6108e1565b005b3480156102c357600080fd5b506102de60048036038101906102d99190612105565b610901565b6040516102eb9190612173565b60405180910390f35b34801561030057600080fd5b5061031b60048036038101906103169190612436565b610987565b6040516103289190612472565b60405180910390f35b34801561033d57600080fd5b50610346610a3e565b005b610362600480360381019061035d9190612436565b610a52565b60405161036f9190612472565b60405180910390f35b34801561038457600080fd5b5061038d610b1a565b60405161039a9190612173565b60405180910390f35b3480156103af57600080fd5b506103b8610b44565b6040516103c59190612472565b60405180910390f35b3480156103da57600080fd5b506103e3610b4a565b6040516103f091906120ad565b60405180910390f35b34801561040557600080fd5b50610420600480360381019061041b91906124b9565b610bdc565b005b34801561042e57600080fd5b506104496004803603810190610444919061259a565b610bf2565b005b34801561045757600080fd5b50610460610c54565b60405161046d9190612472565b60405180910390f35b34801561048257600080fd5b5061049d60048036038101906104989190612105565b610c5f565b6040516104aa91906120ad565b60405180910390f35b3480156104bf57600080fd5b506104c8610cc7565b6040516104d591906120ad565b60405180910390f35b3480156104ea57600080fd5b5061050560048036038101906105009190612436565b610d55565b6040516105129190612472565b60405180910390f35b34801561052757600080fd5b50610542600480360381019061053d919061261d565b610df8565b60405161054f9190612002565b60405180910390f35b34801561056457600080fd5b5061057f600480360381019061057a9190612436565b610e8c565b005b60007f80ac58cd000000000000000000000000000000000000000000000000000000007bffffffffffffffffffffffffffffffffffffffffffffffffffffffff1916827bffffffffffffffffffffffffffffffffffffffffffffffffffffffff1916148061064c57507f5b5e139f000000000000000000000000000000000000000000000000000000007bffffffffffffffffffffffffffffffffffffffffffffffffffffffff1916827bffffffffffffffffffffffffffffffffffffffffffffffffffffffff1916145b8061065c575061065b82610f0f565b5b9050919050565b6060600080546106729061268c565b80601f016020809104026020016040519081016040528092919081815260200182805461069e9061268c565b80156106eb5780601f106106c0576101008083540402835291602001916106eb565b820191906000526020600020905b8154815290600101906020018083116106ce57829003601f168201915b5050505050905090565b600061070082610f79565b6004600083815260200190815260200160002060009054906101000a900473ffffffffffffffffffffffffffffffffffffffff169050919050565b600061074682610901565b90508073ffffffffffffffffffffffffffffffffffffffff168373ffffffffffffffffffffffffffffffffffffffff16036107b6576040517f08c379a00000000000000000000000000000000000000000000000000000000081526004016107ad9061272f565b60405180910390fd5b8073ffffffffffffffffffffffffffffffffffffffff166107d5610fc4565b73ffffffffffffffffffffffffffffffffffffffff1614806108045750610803816107fe610fc4565b610df8565b5b610843576040517f08c379a000000000000000000000000000000000000000000000000000000000815260040161083a906127c1565b60405180910390fd5b61084d8383610fcc565b505050565b61086361085d610fc4565b82611085565b6108a2576040517f08c379a000000000000000000000000000000000000000000000000000000000815260040161089990612853565b60405180910390fd5b6108ad83838361111a565b505050565b6108ba611413565b80600890816108c99190612a1f565b5050565b6108d5611413565b6108de81611491565b50565b6108fc83838360405180602001604052806000815250610bf2565b505050565b60008061090d8361151f565b9050600073ffffffffffffffffffffffffffffffffffffffff168173ffffffffffffffffffffffffffffffffffffffff160361097e576040517f08c379a000000000000000000000000000000000000000000000000000000000815260040161097590612b3d565b60405180910390fd5b80915050919050565b60008073ffffffffffffffffffffffffffffffffffffffff168273ffffffffffffffffffffffffffffffffffffffff16036109f7576040517f08c379a00000000000000000000000000000000000000000000000000000000081526004016109ee90612bcf565b60405180910390fd5b600360008373ffffffffffffffffffffffffffffffffffffffff1673ffffffffffffffffffffffffffffffffffffffff168152602001908152602001600020549050919050565b610a46611413565b610a50600061155c565b565b600080610a5f6007611622565b90506127108110610aa5576040517f08c379a0000000000000000000000000000000000000000000000000000000008152600401610a9c90612c3b565b60405180910390fd5b66b1a2bc2ec500003414610aee576040517f08c379a0000000000000000000000000000000000000000000000000000000008152600401610ae590612ccd565b60405180910390fd5b610af86007611630565b6000610b046007611622565b9050610b108482611646565b8092505050919050565b6000600660009054906101000a900473ffffffffffffffffffffffffffffffffffffffff16905090565b61271081565b606060018054610b599061268c565b80601f0160208091040260200160405190810160405280929190818152602001828054610b859061268c565b8015610bd25780601f10610ba757610100808354040283529160200191610bd2565b820191906000526020600020905b815481529060010190602001808311610bb557829003601f168201915b5050505050905090565b610bee610be7610fc4565b8383611664565b5050565b610c03610bfd610fc4565b83611085565b610c42576040517f08c379a0000000000000000000000000000000000000000000000000000000008152600401610c3990612853565b60405180910390fd5b610c4e848484846117d0565b50505050565b66b1a2bc2ec5000081565b6060610c6a82610f79565b6000610c7461182c565b90506000815111610c945760405180602001604052806000815250610cbf565b80610c9e846118be565b604051602001610caf929190612d29565b6040516020818303038152906040525b915050919050565b60088054610cd49061268c565b80601f0160208091040260200160405190810160405280929190818152602001828054610d009061268c565b8015610d4d5780601f10610d2257610100808354040283529160200191610d4d565b820191906000526020600020905b815481529060010190602001808311610d3057829003601f168201915b505050505081565b60007f000000000000000000000000000000000000000000000000000000000000000073ffffffffffffffffffffffffffffffffffffffff1663e3a9db1a836040518263ffffffff1660e01b8152600401610db09190612173565b602060405180830381865afa158015610dcd573d6000803e3d6000fd5b505050506040513d601f19601f82011682018060405250810190610df19190612d62565b9050919050565b6000600560008473ffffffffffffffffffffffffffffffffffffffff1673ffffffffffffffffffffffffffffffffffffffff16815260200190815260200160002060008373ffffffffffffffffffffffffffffffffffffffff1673ffffffffffffffffffffffffffffffffffffffff16815260200190815260200160002060009054906101000a900460ff16905092915050565b610e94611413565b600073ffffffffffffffffffffffffffffffffffffffff168173ffffffffffffffffffffffffffffffffffffffff1603610f03576040517f08c379a0000000000000000000000000000000000000000000000000000000008152600401610efa90612e01565b60405180910390fd5b610f0c8161155c565b50565b60007f01ffc9a7000000000000000000000000000000000000000000000000000000007bffffffffffffffffffffffffffffffffffffffffffffffffffffffff1916827bffffffffffffffffffffffffffffffffffffffffffffffffffffffff1916149050919050565b610f828161198c565b610fc1576040517f08c379a0000000000000000000000000000000000000000000000000000000008152600401610fb890612b3d565b60405180910390fd5b50565b600033905090565b816004600083815260200190815260200160002060006101000a81548173ffffffffffffffffffffffffffffffffffffffff021916908373ffffffffffffffffffffffffffffffffffffffff160217905550808273ffffffffffffffffffffffffffffffffffffffff1661103f83610901565b73ffffffffffffffffffffffffffffffffffffffff167f8c5be1e5ebec7d5bd14f71427d1e84f3dd0314c0f7b2291e5b200ac8c7c3b92560405160405180910390a45050565b60008061109183610901565b90508073ffffffffffffffffffffffffffffffffffffffff168473ffffffffffffffffffffffffffffffffffffffff1614806110d357506110d28185610df8565b5b8061111157508373ffffffffffffffffffffffffffffffffffffffff166110f9846106f5565b73ffffffffffffffffffffffffffffffffffffffff16145b91505092915050565b8273ffffffffffffffffffffffffffffffffffffffff1661113a82610901565b73ffffffffffffffffffffffffffffffffffffffff1614611190576040517f08c379a000000000000000000000000000000000000000000000000000000000815260040161118790612e93565b60405180910390fd5b600073ffffffffffffffffffffffffffffffffffffffff168273ffffffffffffffffffffffffffffffffffffffff16036111ff576040517f08c379a00000000000000000000000000000000000000000000000000000000081526004016111f690612f25565b60405180910390fd5b61120c83838360016119cd565b8273ffffffffffffffffffffffffffffffffffffffff1661122c82610901565b73ffffffffffffffffffffffffffffffffffffffff1614611282576040517f08c379a000000000000000000000000000000000000000000000000000000000815260040161127990612e93565b60405180910390fd5b6004600082815260200190815260200160002060006101000a81549073ffffffffffffffffffffffffffffffffffffffff02191690556001600360008573ffffffffffffffffffffffffffffffffffffffff1673ffffffffffffffffffffffffffffffffffffffff168152602001908152602001600020600082825403925050819055506001600360008473ffffffffffffffffffffffffffffffffffffffff1673ffffffffffffffffffffffffffffffffffffffff16815260200190815260200160002060008282540192505081905550816002600083815260200190815260200160002060006101000a81548173ffffffffffffffffffffffffffffffffffffffff021916908373ffffffffffffffffffffffffffffffffffffffff160217905550808273ffffffffffffffffffffffffffffffffffffffff168473ffffffffffffffffffffffffffffffffffffffff167fddf252ad1be2c89b69c2b068fc378daa952ba7f163c4a11628f55a4df523b3ef60405160405180910390a461140e83838360016119d3565b505050565b61141b610fc4565b73ffffffffffffffffffffffffffffffffffffffff16611439610b1a565b73ffffffffffffffffffffffffffffffffffffffff161461148f576040517f08c379a000000000000000000000000000000000000000000000000000000000815260040161148690612f91565b60405180910390fd5b565b7f000000000000000000000000000000000000000000000000000000000000000073ffffffffffffffffffffffffffffffffffffffff166351cff8d9826040518263ffffffff1660e01b81526004016114ea9190612fc0565b600060405180830381600087803b15801561150457600080fd5b505af1158015611518573d6000803e3d6000fd5b5050505050565b60006002600083815260200190815260200160002060009054906101000a900473ffffffffffffffffffffffffffffffffffffffff169050919050565b6000600660009054906101000a900473ffffffffffffffffffffffffffffffffffffffff16905081600660006101000a81548173ffffffffffffffffffffffffffffffffffffffff021916908373ffffffffffffffffffffffffffffffffffffffff1602179055508173ffffffffffffffffffffffffffffffffffffffff168173ffffffffffffffffffffffffffffffffffffffff167f8be0079c531659141344cd1fd0a4f28419497f9722a3daafe3b4186f6b6457e060405160405180910390a35050565b600081600001549050919050565b6001816000016000828254019250508190555050565b6116608282604051806020016040528060008152506119d9565b5050565b8173ffffffffffffffffffffffffffffffffffffffff168373ffffffffffffffffffffffffffffffffffffffff16036116d2576040517f08c379a00000000000000000000000000000000000000000000000000000000081526004016116c990613027565b60405180910390fd5b80600560008573ffffffffffffffffffffffffffffffffffffffff1673ffffffffffffffffffffffffffffffffffffffff16815260200190815260200160002060008473ffffffffffffffffffffffffffffffffffffffff1673ffffffffffffffffffffffffffffffffffffffff16815260200190815260200160002060006101000a81548160ff0219169083151502179055508173ffffffffffffffffffffffffffffffffffffffff168373ffffffffffffffffffffffffffffffffffffffff167f17307eab39ab6107e8899845ad3d59bd9653f200f220920489ca2b5937696c31836040516117c39190612002565b60405180910390a3505050565b6117db84848461111a565b6117e784848484611a34565b611826576040517f08c379a000000000000000000000000000000000000000000000000000000000815260040161181d906130b9565b60405180910390fd5b50505050565b60606008805461183b9061268c565b80601f01602080910402602001604051908101604052809291908181526020018280546118679061268c565b80156118b45780601f10611889576101008083540402835291602001916118b4565b820191906000526020600020905b81548152906001019060200180831161189757829003601f168201915b5050505050905090565b6060600060016118cd84611bbb565b01905060008167ffffffffffffffff8111156118ec576118eb612257565b5b6040519080825280601f01601f19166020018201604052801561191e5781602001600182028036833780820191505090505b509050600082602001820190505b600115611981578080600190039150507f3031323334353637383961626364656600000000000000000000000000000000600a86061a8153600a8581611975576119746130d9565b5b0494506000850361192c575b819350505050919050565b60008073ffffffffffffffffffffffffffffffffffffffff166119ae8361151f565b73ffffffffffffffffffffffffffffffffffffffff1614159050919050565b50505050565b50505050565b6119e38383611d0e565b6119f06000848484611a34565b611a2f576040517f08c379a0000000000000000000000000000000000000000000000000000000008152600401611a26906130b9565b60405180910390fd5b505050565b6000611a558473ffffffffffffffffffffffffffffffffffffffff16611f2b565b15611bae578373ffffffffffffffffffffffffffffffffffffffff1663150b7a02611a7e610fc4565b8786866040518563ffffffff1660e01b8152600401611aa0949392919061315d565b6020604051808303816000875af1925050508015611adc57506040513d601f19601f82011682018060405250810190611ad991906131be565b60015b611b5e573d8060008114611b0c576040519150601f19603f3d011682016040523d82523d6000602084013e611b11565b606091505b506000815103611b56576040517f08c379a0000000000000000000000000000000000000000000000000000000008152600401611b4d906130b9565b60405180910390fd5b805181602001fd5b63150b7a0260e01b7bffffffffffffffffffffffffffffffffffffffffffffffffffffffff1916817bffffffffffffffffffffffffffffffffffffffffffffffffffffffff191614915050611bb3565b600190505b949350505050565b600080600090507a184f03e93ff9f4daa797ed6e38ed64bf6a1f0100000000000000008310611c19577a184f03e93ff9f4daa797ed6e38ed64bf6a1f0100000000000000008381611c0f57611c0e6130d9565b5b0492506040810190505b6d04ee2d6d415b85acef81000000008310611c56576d04ee2d6d415b85acef81000000008381611c4c57611c4b6130d9565b5b0492506020810190505b662386f26fc100008310611c8557662386f26fc100008381611c7b57611c7a6130d9565b5b0492506010810190505b6305f5e1008310611cae576305f5e1008381611ca457611ca36130d9565b5b0492506008810190505b6127108310611cd3576127108381611cc957611cc86130d9565b5b0492506004810190505b60648310611cf65760648381611cec57611ceb6130d9565b5b0492506002810190505b600a8310611d05576001810190505b80915050919050565b600073ffffffffffffffffffffffffffffffffffffffff168273ffffffffffffffffffffffffffffffffffffffff1603611d7d576040517f08c379a0000000000000000000000000000000000000000000000000000000008152600401611d7490613237565b60405180910390fd5b611d868161198c565b15611dc6576040517f08c379a0000000000000000000000000000000000000000000000000000000008152600401611dbd906132a3565b60405180910390fd5b611dd46000838360016119cd565b611ddd8161198c565b15611e1d576040517f08c379a0000000000000000000000000000000000000000000000000000000008152600401611e14906132a3565b60405180910390fd5b6001600360008473ffffffffffffffffffffffffffffffffffffffff1673ffffffffffffffffffffffffffffffffffffffff16815260200190815260200160002060008282540192505081905550816002600083815260200190815260200160002060006101000a81548173ffffffffffffffffffffffffffffffffffffffff021916908373ffffffffffffffffffffffffffffffffffffffff160217905550808273ffffffffffffffffffffffffffffffffffffffff16600073ffffffffffffffffffffffffffffffffffffffff167fddf252ad1be2c89b69c2b068fc378daa952ba7f163c4a11628f55a4df523b3ef60405160405180910390a4611f276000838360016119d3565b5050565b6000808273ffffffffffffffffffffffffffffffffffffffff163b119050919050565b6000604051905090565b600080fd5b600080fd5b60007fffffffff0000000000000000000000000000000000000000000000000000000082169050919050565b611f9781611f62565b8114611fa257600080fd5b50565b600081359050611fb481611f8e565b92915050565b600060208284031215611fd057611fcf611f58565b5b6000611fde84828501611fa5565b91505092915050565b60008115159050919050565b611ffc81611fe7565b82525050565b60006020820190506120176000830184611ff3565b92915050565b600081519050919050565b600082825260208201905092915050565b60005b8381101561205757808201518184015260208101905061203c565b60008484015250505050565b6000601f19601f8301169050919050565b600061207f8261201d565b6120898185612028565b9350612099818560208601612039565b6120a281612063565b840191505092915050565b600060208201905081810360008301526120c78184612074565b905092915050565b6000819050919050565b6120e2816120cf565b81146120ed57600080fd5b50565b6000813590506120ff816120d9565b92915050565b60006020828403121561211b5761211a611f58565b5b6000612129848285016120f0565b91505092915050565b600073ffffffffffffffffffffffffffffffffffffffff82169050919050565b600061215d82612132565b9050919050565b61216d81612152565b82525050565b60006020820190506121886000830184612164565b92915050565b61219781612152565b81146121a257600080fd5b50565b6000813590506121b48161218e565b92915050565b600080604083850312156121d1576121d0611f58565b5b60006121df858286016121a5565b92505060206121f0858286016120f0565b9150509250929050565b60008060006060848603121561221357612212611f58565b5b6000612221868287016121a5565b9350506020612232868287016121a5565b9250506040612243868287016120f0565b9150509250925092565b600080fd5b600080fd5b7f4e487b7100000000000000000000000000000000000000000000000000000000600052604160045260246000fd5b61228f82612063565b810181811067ffffffffffffffff821117156122ae576122ad612257565b5b80604052505050565b60006122c1611f4e565b90506122cd8282612286565b919050565b600067ffffffffffffffff8211156122ed576122ec612257565b5b6122f682612063565b9050602081019050919050565b82818337600083830152505050565b6000612325612320846122d2565b6122b7565b90508281526020810184848401111561234157612340612252565b5b61234c848285612303565b509392505050565b600082601f8301126123695761236861224d565b5b8135612379848260208601612312565b91505092915050565b60006020828403121561239857612397611f58565b5b600082013567ffffffffffffffff8111156123b6576123b5611f5d565b5b6123c284828501612354565b91505092915050565b60006123d682612132565b9050919050565b6123e6816123cb565b81146123f157600080fd5b50565b600081359050612403816123dd565b92915050565b60006020828403121561241f5761241e611f58565b5b600061242d848285016123f4565b91505092915050565b60006020828403121561244c5761244b611f58565b5b600061245a848285016121a5565b91505092915050565b61246c816120cf565b82525050565b60006020820190506124876000830184612463565b92915050565b61249681611fe7565b81146124a157600080fd5b50565b6000813590506124b38161248d565b92915050565b600080604083850312156124d0576124cf611f58565b5b60006124de858286016121a5565b92505060206124ef858286016124a4565b9150509250929050565b600067ffffffffffffffff82111561251457612513612257565b5b61251d82612063565b9050602081019050919050565b600061253d612538846124f9565b6122b7565b90508281526020810184848401111561255957612558612252565b5b612564848285612303565b509392505050565b600082601f8301126125815761258061224d565b5b813561259184826020860161252a565b91505092915050565b600080600080608085870312156125b4576125b3611f58565b5b60006125c2878288016121a5565b94505060206125d3878288016121a5565b93505060406125e4878288016120f0565b925050606085013567ffffffffffffffff81111561260557612604611f5d565b5b6126118782880161256c565b91505092959194509250565b6000806040838503121561263457612633611f58565b5b6000612642858286016121a5565b9250506020612653858286016121a5565b9150509250929050565b7f4e487b7100000000000000000000000000000000000000000000000000000000600052602260045260246000fd5b600060028204905060018216806126a457607f821691505b6020821081036126b7576126b661265d565b5b50919050565b7f4552433732313a20617070726f76616c20746f2063757272656e74206f776e6560008201527f7200000000000000000000000000000000000000000000000000000000000000602082015250565b6000612719602183612028565b9150612724826126bd565b604082019050919050565b600060208201905081810360008301526127488161270c565b9050919050565b7f4552433732313a20617070726f76652063616c6c6572206973206e6f7420746f60008201527f6b656e206f776e6572206f7220617070726f76656420666f7220616c6c000000602082015250565b60006127ab603d83612028565b91506127b68261274f565b604082019050919050565b600060208201905081810360008301526127da8161279e565b9050919050565b7f4552433732313a2063616c6c6572206973206e6f7420746f6b656e206f776e6560008201527f72206f7220617070726f76656400000000000000000000000000000000000000602082015250565b600061283d602d83612028565b9150612848826127e1565b604082019050919050565b6000602082019050818103600083015261286c81612830565b9050919050565b60008190508160005260206000209050919050565b60006020601f8301049050919050565b600082821b905092915050565b6000600883026128d57fffffffffffffffffffffffffffffffffffffffffffffffffffffffffffffffff82612898565b6128df8683612898565b95508019841693508086168417925050509392505050565b6000819050919050565b600061291c612917612912846120cf565b6128f7565b6120cf565b9050919050565b6000819050919050565b61293683612901565b61294a61294282612923565b8484546128a5565b825550505050565b600090565b61295f612952565b61296a81848461292d565b505050565b5b8181101561298e57612983600082612957565b600181019050612970565b5050565b601f8211156129d3576129a481612873565b6129ad84612888565b810160208510156129bc578190505b6129d06129c885612888565b83018261296f565b50505b505050565b600082821c905092915050565b60006129f6600019846008026129d8565b1980831691505092915050565b6000612a0f83836129e5565b9150826002028217905092915050565b612a288261201d565b67ffffffffffffffff811115612a4157612a40612257565b5b612a4b825461268c565b612a56828285612992565b600060209050601f831160018114612a895760008415612a77578287015190505b612a818582612a03565b865550612ae9565b601f198416612a9786612873565b60005b82811015612abf57848901518255600182019150602085019450602081019050612a9a565b86831015612adc5784890151612ad8601f8916826129e5565b8355505b6001600288020188555050505b505050505050565b7f4552433732313a20696e76616c696420746f6b656e2049440000000000000000600082015250565b6000612b27601883612028565b9150612b3282612af1565b602082019050919050565b60006020820190508181036000830152612b5681612b1a565b9050919050565b7f4552433732313a2061646472657373207a65726f206973206e6f74206120766160008201527f6c6964206f776e65720000000000000000000000000000000000000000000000602082015250565b6000612bb9602983612028565b9150612bc482612b5d565b604082019050919050565b60006020820190508181036000830152612be881612bac565b9050919050565b7f4d617820737570706c7920726561636865640000000000000000000000000000600082015250565b6000612c25601283612028565b9150612c3082612bef565b602082019050919050565b60006020820190508181036000830152612c5481612c18565b9050919050565b7f5472616e73616374696f6e2076616c756520646964206e6f7420657175616c2060008201527f746865206d696e74207072696365000000000000000000000000000000000000602082015250565b6000612cb7602e83612028565b9150612cc282612c5b565b604082019050919050565b60006020820190508181036000830152612ce681612caa565b9050919050565b600081905092915050565b6000612d038261201d565b612d0d8185612ced565b9350612d1d818560208601612039565b80840191505092915050565b6000612d358285612cf8565b9150612d418284612cf8565b91508190509392505050565b600081519050612d5c816120d9565b92915050565b600060208284031215612d7857612d77611f58565b5b6000612d8684828501612d4d565b91505092915050565b7f4f776e61626c653a206e6577206f776e657220697320746865207a65726f206160008201527f6464726573730000000000000000000000000000000000000000000000000000602082015250565b6000612deb602683612028565b9150612df682612d8f565b604082019050919050565b60006020820190508181036000830152612e1a81612dde565b9050919050565b7f4552433732313a207472616e736665722066726f6d20696e636f72726563742060008201527f6f776e6572000000000000000000000000000000000000000000000000000000602082015250565b6000612e7d602583612028565b9150612e8882612e21565b604082019050919050565b60006020820190508181036000830152612eac81612e70565b9050919050565b7f4552433732313a207472616e7366657220746f20746865207a65726f2061646460008201527f7265737300000000000000000000000000000000000000000000000000000000602082015250565b6000612f0f602483612028565b9150612f1a82612eb3565b604082019050919050565b60006020820190508181036000830152612f3e81612f02565b9050919050565b7f4f776e61626c653a2063616c6c6572206973206e6f7420746865206f776e6572600082015250565b6000612f7b602083612028565b9150612f8682612f45565b602082019050919050565b60006020820190508181036000830152612faa81612f6e565b9050919050565b612fba816123cb565b82525050565b6000602082019050612fd56000830184612fb1565b92915050565b7f4552433732313a20617070726f766520746f2063616c6c657200000000000000600082015250565b6000613011601983612028565b915061301c82612fdb565b602082019050919050565b6000602082019050818103600083015261304081613004565b9050919050565b7f4552433732313a207472616e7366657220746f206e6f6e20455243373231526560008201527f63656976657220696d706c656d656e7465720000000000000000000000000000602082015250565b60006130a3603283612028565b91506130ae82613047565b604082019050919050565b600060208201905081810360008301526130d281613096565b9050919050565b7f4e487b7100000000000000000000000000000000000000000000000000000000600052601260045260246000fd5b600081519050919050565b600082825260208201905092915050565b600061312f82613108565b6131398185613113565b9350613149818560208601612039565b61315281612063565b840191505092915050565b60006080820190506131726000830187612164565b61317f6020830186612164565b61318c6040830185612463565b818103606083015261319e8184613124565b905095945050505050565b6000815190506131b881611f8e565b92915050565b6000602082840312156131d4576131d3611f58565b5b60006131e2848285016131a9565b91505092915050565b7f4552433732313a206d696e7420746f20746865207a65726f2061646472657373600082015250565b6000613221602083612028565b915061322c826131eb565b602082019050919050565b6000602082019050818103600083015261325081613214565b9050919050565b7f4552433732313a20746f6b656e20616c7265616479206d696e74656400000000600082015250565b600061328d601c83612028565b915061329882613257565b602082019050919050565b600060208201905081810360008301526132bc81613280565b905091905056fea26469706673582212204851b5d3912f6e0f15c31e7073c4122905b8709c28f7f3efcc75635a838f660364736f6c63430008130033608060405234801561001057600080fd5b5061002d61002261003260201b60201c565b61003a60201b60201c565b6100fe565b600033905090565b60008060009054906101000a900473ffffffffffffffffffffffffffffffffffffffff169050816000806101000a81548173ffffffffffffffffffffffffffffffffffffffff021916908373ffffffffffffffffffffffffffffffffffffffff1602179055508173ffffffffffffffffffffffffffffffffffffffff168173ffffffffffffffffffffffffffffffffffffffff167f8be0079c531659141344cd1fd0a4f28419497f9722a3daafe3b4186f6b6457e060405160405180910390a35050565b610a948061010d6000396000f3fe6080604052600436106100555760003560e01c806351cff8d91461005a578063715018a6146100835780638da5cb5b1461009a578063e3a9db1a146100c5578063f2fde38b14610102578063f340fa011461012b575b600080fd5b34801561006657600080fd5b50610081600480360381019061007c91906106b2565b610147565b005b34801561008f57600080fd5b50610098610253565b005b3480156100a657600080fd5b506100af610267565b6040516100bc9190610700565b60405180910390f35b3480156100d157600080fd5b506100ec60048036038101906100e79190610747565b610290565b6040516100f9919061078d565b60405180910390f35b34801561010e57600080fd5b5061012960048036038101906101249190610747565b6102d9565b005b61014560048036038101906101409190610747565b61035c565b005b61014f610411565b6000600160008373ffffffffffffffffffffffffffffffffffffffff1673ffffffffffffffffffffffffffffffffffffffff1681526020019081526020016000205490506000600160008473ffffffffffffffffffffffffffffffffffffffff1673ffffffffffffffffffffffffffffffffffffffff16815260200190815260200160002081905550610201818373ffffffffffffffffffffffffffffffffffffffff1661048f90919063ffffffff16565b8173ffffffffffffffffffffffffffffffffffffffff167f7084f5476618d8e60b11ef0d7d3f06914655adb8793e28ff7f018d4c76d505d582604051610247919061078d565b60405180910390a25050565b61025b610411565b6102656000610583565b565b60008060009054906101000a900473ffffffffffffffffffffffffffffffffffffffff16905090565b6000600160008373ffffffffffffffffffffffffffffffffffffffff1673ffffffffffffffffffffffffffffffffffffffff168152602001908152602001600020549050919050565b6102e1610411565b600073ffffffffffffffffffffffffffffffffffffffff168173ffffffffffffffffffffffffffffffffffffffff1603610350576040517f08c379a00000000000000000000000000000000000000000000000000000000081526004016103479061082b565b60405180910390fd5b61035981610583565b50565b610364610411565b600034905080600160008473ffffffffffffffffffffffffffffffffffffffff1673ffffffffffffffffffffffffffffffffffffffff16815260200190815260200160002060008282546103b8919061087a565b925050819055508173ffffffffffffffffffffffffffffffffffffffff167f2da466a7b24304f47e87fa2e1e5a81b9831ce54fec19055ce277ca2f39ba42c482604051610405919061078d565b60405180910390a25050565b610419610647565b73ffffffffffffffffffffffffffffffffffffffff16610437610267565b73ffffffffffffffffffffffffffffffffffffffff161461048d576040517f08c379a0000000000000000000000000000000000000000000000000000000008152600401610484906108fa565b60405180910390fd5b565b804710156104d2576040517f08c379a00000000000000000000000000000000000000000000000000000000081526004016104c990610966565b60405180910390fd5b60008273ffffffffffffffffffffffffffffffffffffffff16826040516104f8906109b7565b60006040518083038185875af1925050503d8060008114610535576040519150601f19603f3d011682016040523d82523d6000602084013e61053a565b606091505b505090508061057e576040517f08c379a000000000000000000000000000000000000000000000000000000000815260040161057590610a3e565b60405180910390fd5b505050565b60008060009054906101000a900473ffffffffffffffffffffffffffffffffffffffff169050816000806101000a81548173ffffffffffffffffffffffffffffffffffffffff021916908373ffffffffffffffffffffffffffffffffffffffff1602179055508173ffffffffffffffffffffffffffffffffffffffff168173ffffffffffffffffffffffffffffffffffffffff167f8be0079c531659141344cd1fd0a4f28419497f9722a3daafe3b4186f6b6457e060405160405180910390a35050565b600033905090565b600080fd5b600073ffffffffffffffffffffffffffffffffffffffff82169050919050565b600061067f82610654565b9050919050565b61068f81610674565b811461069a57600080fd5b50565b6000813590506106ac81610686565b92915050565b6000602082840312156106c8576106c761064f565b5b60006106d68482850161069d565b91505092915050565b60006106ea82610654565b9050919050565b6106fa816106df565b82525050565b600060208201905061071560008301846106f1565b92915050565b610724816106df565b811461072f57600080fd5b50565b6000813590506107418161071b565b92915050565b60006020828403121561075d5761075c61064f565b5b600061076b84828501610732565b91505092915050565b6000819050919050565b61078781610774565b82525050565b60006020820190506107a2600083018461077e565b92915050565b600082825260208201905092915050565b7f4f776e61626c653a206e6577206f776e657220697320746865207a65726f206160008201527f6464726573730000000000000000000000000000000000000000000000000000602082015250565b60006108156026836107a8565b9150610820826107b9565b604082019050919050565b6000602082019050818103600083015261084481610808565b9050919050565b7f4e487b7100000000000000000000000000000000000000000000000000000000600052601160045260246000fd5b600061088582610774565b915061089083610774565b92508282019050808211156108a8576108a761084b565b5b92915050565b7f4f776e61626c653a2063616c6c6572206973206e6f7420746865206f776e6572600082015250565b60006108e46020836107a8565b91506108ef826108ae565b602082019050919050565b60006020820190508181036000830152610913816108d7565b9050919050565b7f416464726573733a20696e73756666696369656e742062616c616e6365000000600082015250565b6000610950601d836107a8565b915061095b8261091a565b602082019050919050565b6000602082019050818103600083015261097f81610943565b9050919050565b600081905092915050565b50565b60006109a1600083610986565b91506109ac82610991565b600082019050919050565b60006109c282610994565b9150819050919050565b7f416464726573733a20756e61626c6520746f2073656e642076616c75652c207260008201527f6563697069656e74206d61792068617665207265766572746564000000000000602082015250565b6000610a28603a836107a8565b9150610a33826109cc565b604082019050919050565b60006020820190508181036000830152610a5781610a1b565b905091905056fea26469706673582212205090fae0543ac3371adf32d56523299e800bc79a07af21b01bd0a5143c723b0664736f6c63430008130033",
  "linkReferences": {},
  "deployedLinkReferences": {}
}